:020000040800F2
:100000004808002001010008F1310008F925000826
:10001000BD310008ED090008A1380008000000000B
:10002000000000000000000000000000473200084F
:10003000050B00080000000045320008D732000818
:100040001B0100081B0100081B0100081B01000820
:100050001B0100081B0100081B0100081B01000810
:100060001B0100081B0100081B0100081B01000800
:100070001B0100081B0100081B0100081B010008F0
:100080001B0100081B0100081B0100081B010008E0
:100090001B0100081B0100081B0100081B010008D0
:1000A0001B0100081B0100081B0100081B010008C0
:1000B0001B0100081B0100081B0100081B010008B0
:1000C0001B0100081B0100081B0100081B010008A0
:1000D0001B010008AD3700081B0100081B010008C8
:1000E000070B00081B0100081B010008DFF80CD0FB
:1000F00000F09CFB00480047394B000848080020EE
:100100000648804706480047FEE7FEE7FEE7FEE7B1
:10011000FEE7FEE7FEE7FEE7FEE7FEE7293300081D
:10012000ED000008202A04DB203A21FA02F0002129
:10013000704721FA02F3D040C2F1200291400843F7
:1001400019467047D2B201E000F8012B491EFBD2DC
:1001500070470022F6E710B513460A4604461946D2
:10016000FFF7F0FF204610BD421C10F8011B0029CC
:10017000FBD1801A704730B505460020034600E0E9
:100180005B1C934205D2EC5CC85C201A01D1002CA8
:10019000F6D130BD70B50F4D00B92868002412E0CB
:1001A0000A4602E09E4203D0521C1378002BF9D17C
:1001B000DAB2224305D02BB124B1002100F8011B93
:1001C00004E00446401C0678002EE9D12860204651
:1001D00070BD0000C800002070B5064603F084FB27
:1001E000046805460A220021304600F00CF92C6014
:1001F00070BD2DE9FE4F81EA030404F0004421F0B4
:10020000004100944FF0000B23F0004350EA01043A
:100210005ED052EA03045BD0C3F30A54C1F30A551B
:100220002C44A4F2F3340194A0FB0254C1F3130153
:1002300041F48011C3F3130343F4801301FB024420
:1002400000FB034E840A970A44EA815447EA835725
:10025000A4FB076802958D0A05FB07854FEA932CDE
:1002600004FB0C542705029D4FEA065847EA16374F
:10027000B5EB08056EEB070C870E920E47EA811767
:1002800042EA8312A7FB0201B6EB0B0164EB000408
:100290002B0D43EA0C335E1844EB1C50DA465146F2
:1002A000E7FB0201C5F313044FEA0B3343EA14538F
:1002B0004FEA0432019C43EA0603A4F10C040294C1
:1002C000009CCDE900B400F01CF903B0BDE8F08F4C
:1002D00000200146F9E70EB540F2334102910021BA
:1002E000CDE900110A460B4600F00BF903B000BD42
:1002F00000F0004230F000400AD0C10D01F56071FD
:10030000C0F3160042EA0151C2084007114370478A
:1003100000200146704701F0004330B421F0004155
:1003200050EA010206D00A0DA2F56072C1F3130172
:10033000002A02DC30BC00207047440F44EAC104AC
:10034000C100E01830BC00EBC25000F094B80000CF
:10035000002801DBC0F10040002901DBC1F10041B0
:1003600081427047002801DBC0F10040002901DB19
:10037000C1F100418842704730B50B46014600206C
:100380002022012409E021FA02F59D4205D303FA57
:1003900002F5491B04FA02F52844151EA2F10102D8
:1003A000F1DC30BD2DE9F05F0546002092469B460A
:1003B00088460646814640241BE02846414647467B
:1003C0002246FFF7AFFE53465A46C01A914110D35A
:1003D00011461846224600F03BFA2D1A67EB010839
:1003E0004F4622460120002100F032FA17EB0009A7
:1003F0004E41201EA4F10104DFDC484631462A4666
:100400004346BDE8F09F2DE9F04791460F468046F0
:100410000446002614F8015B2DB100F03BFA006899
:10042000405DC007F6D12B2D02D02D2D18D0641EB3
:100430004A463946204600F031FA27B13968A142D0
:1004400001D1C7F8008071054FF002040BD540427E
:10045000002803DD03F048FA0460A007BDE8F08738
:1004600046F48066E4E70028F8DA03F03DFA046019
:100470006FF00040F2E70029A8BF7047401C490018
:1004800008BF20F00100704710B4B0FA80FC00FAF9
:100490000CF050EA010404BF10BC704749B1CCF124
:1004A000200421FA04F411FA0CF118BF01212143B0
:1004B0000843A3EB0C01CB1D4FEA00614FEA10206B
:1004C00042BF002010BC704700EBC350104400290D
:1004D000A4BF10BC7047401C490008BF20F00100B9
:1004E00010BC704710B5141E73F1000408DA401CEC
:1004F00041F1000192185B411A4301D120F0010043
:1005000010BD2DE9F04D92469B4611B1B1FA81F232
:1005100002E0B0FA80F22032904600F099F90446E9
:100520000F4640EA0A0041EA0B0153465A46084387
:1005300013D0114653EA010019D0C8F140025046C9
:10054000FFF7F0FD05460E4650465946424600F07C
:100550007FF9084305D0012004E020463946BDE874
:10056000F08D0020054346EAE0762C4337430A9895
:100570006305E40AA0EB08000022FD0A44EA4754A0
:100580000A3002D500200146E9E70105101969414A
:10059000DDE9084500196941BDE8F04DA2E72DE904
:1005A000FE4F804681EA0300C00F0C46009021F008
:1005B000004123F00045B8EB0200A94105D24046B6
:1005C000214690461C460B46024623F0004010434D
:1005D00047D0270DC7F30A00C3F30A510290401A0F
:1005E000019040286BDAC3F3130040F4801B00989D
:1005F000924620B10023D2EB030A63EB0B0B019868
:100600005946C0F14002504600F022F906460D4618
:1006100050465946019A00F02AF910EB0800614152
:10062000002487EA115284EAE7731A4340D0009A03
:1006300062B3019A012A4FEA075215DC001B61EBF5
:1006400002014FF0004202EA0752CDE90042001CCD
:1006500041F5801132462B46FFF753FF03B0BDE84A
:10066000F08F40462146F9E7001B61EB0201001CB8
:1006700041F5801300185B412018A2F5001747EBE5
:10068000030140EAD570B6196D4111E06D084FEADB
:10069000360645EAC0754FEA0752001B61EB0201BE
:1006A000001C41F5801149084FEA30000019514102
:1006B00032462B4603B0BDE8F04FFFF713BF00985A
:1006C000012240000023D0EB020263EBE0730098AC
:1006D00021464FEAE074B8EB000061EB0401E9E762
:1006E00083F000435BE781F0004158E72DE9F04DCE
:1006F00081EA030404F0004B21F0004514464FF05A
:10070000000A23F0004150EA050220D054EA010219
:100710001DD0C5F30A570246C5F31303C1F31300F6
:10072000C1F30A5640F4801543F48013A7EB060882
:10073000101BD64608F2FD3873EB050002D308F112
:10074000010801E092185B41B8F1000F03DA0020C4
:100750000146BDE8F08D00204FF480110646844626
:100760000EE0171B73EB050705D3121B63EB0503A4
:1007700006434CEA010C49084FEA300092185B41ED
:1007800050EA0107EDD152EA030012D082EA0400D8
:1007900083EA0501084305D0101BAB4106D20122B4
:1007A000002306E000224FF0004302E06FF0010258
:1007B00053101AEB06004CEB085110EB0A0041EB0A
:1007C0000B01BDE8F04DFFF78DBEC1F30A52C1F336
:1007D000130140F2FF3341F480119A4202DA002003
:1007E0000146704740F233439A42A2F2334202DCA0
:1007F0005242FFF797BC00F02BB8000030B5041E42
:1008000071F1000404DB4FF00044404264EB01014D
:10081000141E73F1000405DB1C464FF000435242E6
:1008200063EB0403994208BF904230BD064C074D6C
:1008300006E0E06840F0010394E8070098471034B0
:10084000AC42F6D3FFF756FC644F0008844F000813
:10085000202A04DB203A00FA02F100207047914080
:10086000C2F1200320FA03F3194390407047202A75
:1008700006DBCB17203A41FA02F043EAE07306E0C8
:1008800041FA02F3D040C2F12002914008431946D8
:100890007047000000487047604F00082DE9F05F86
:1008A00082460078002715468B460AF10104B946B6
:1008B000302801D09DB113E014F8010B01277828EE
:1008C00003D0582801D045B10AE00DB1102D07D151
:1008D0000027102514F8010B02E0082500E00A2586
:1008E0000026B0460EE005FB080005FB06F10127D7
:1008F00001EB10461FFA80F8B6F5803F00D3B946E9
:1009000014F8010B294600F018F80028EBDABBF1C7
:10091000000F05D00FB1641E00E05446CBF8004034
:10092000B9F1000F06D002F0DFFF02210160C81EFE
:10093000BDE8F09F48EA0640FAE73A2800D230388E
:1009400020F02002412A01D3A2F13700884201D3CE
:100950004FF0FF3070472DE9F0410446007A069DC4
:1009600001441E461746B42902D8204602F077FCFF
:10097000207DC119B42903D804F10C0002F06FFCEA
:1009800094F8200081199B2903D804F1180002F083
:1009900066FC94F82C00A5F1570101441D2906D8E6
:1009A000411904F12400BDE8F04102F058BCBDE853
:1009B000F08170B50D460446002202F045FC042289
:1009C000294604F10C0002F03FFC0822294604F1FC
:1009D000180002F039FC0C22294604F1240002F030
:1009E00033FC2046BDE8704002F05FBCFEE700002B
:1009F00070B503250E464CB2092843D2DFE800F05B
:100A0000050D0F111820252E3300324600211E48F7
:100A100003F0F4FE324600212EE0324613E0324667
:100A20001FE032460121184803F0E8FE324622E07A
:100A300032460221144803F0E1FE324601211BE058
:100A400094FBF5F0C2B20121F4E7324601210E48D1
:100A500003F0D4FE94FBF5F0C2B2EFE794FBF5F09F
:100A6000C2B20221DFE732460221074803F0C6FE88
:100A700094FBF5F0C2B20221BDE87040024810308C
:100A800003F0BCBE70BD0000F000002010B50C46A5
:100A9000002802DBC2B2012102E04042C2B20221C0
:100AA000084803F0ABFE002C02DBE2B2012102E0B9
:100AB0006042C2B202210348BDE81040103803F082
:100AC0009DBE000000010020F8B59C461446DDE9FB
:100AD0000627054603460091089E6146084804F033
:100AE000D1F807482B46324639461030009404F0BE
:100AF000C9F8BDE8F84000210846FFF779BF0000BB
:100B0000F000002070474FF4005000F079BA70B543
:100B10000446807C002811D00025012807D0022837
:100B20000CD1218AE06800F067FB90B105E0218AD2
:100B3000E06800F061FB012801D0A57470BD206859
:100B4000006845620220A0742068BDE8704001F092
:100B5000E1B8206801F006F90320A07470BD000020
:100B600006490020C8610648016941F0040101619D
:100B7000016941F040010161704700002804002034
:100B800000200240064A0021D16106490A6942F06C
:100B900002020A614861086940F04000086170473C
:100BA0002804002000200240044B0022DA61044A9D
:100BB000136943F00103136101807047280400208A
:100BC0000020024014480022C168CB06134904D516
:100BD000CA6942F00202CA611022C3685B0705D5E8
:100BE000CB6943F00103CB6142F00402C369DB0728
:100BF00007D0CB6943F00403CB61C16921F0010147
:100C0000C161A2F58071013901D0C2607047C1692C
:100C100021F00101C161704700200240280400203A
:100C200070B5054600F0FAFA0646114C09E0681C5A
:100C300007D025B100F0F2FA801BA84201D90320A9
:100C400070BDE068C007F2D1E068800601D52020C1
:100C5000E060E068C00605D4E069C00702D1E06842
:100C6000400703D5FFF7AEFF012070BD002070BD27
:100C70000020024010B503F050FE012209490A4845
:100C800003F03EFE0748C01EC078FF2805D020B103
:100C900050220649064803F033FEBDE8104003F039
:100CA0002DBE00007B00002000F001086001002044
:100CB00000F4010810B503F030FE012209490A488A
:100CC00003F01EFE0748001F0079FF2805D020B161
:100CD00050220649064803F013FEBDE8104003F019
:100CE0000DBE00007C00002000F80108B0010020CB
:100CF00000FC010870B503F010FE0C4C204603F018
:100D0000F0FD0B4D284603F0ECFD01220949204679
:100D100003F005FE50220849284603F000FE03F0C8
:100D2000EDFD04490020087070BD000000F00108CE
:100D300000F40108780000201001002070B503F0D5
:100D4000ECFD0C4C204603F0CCFD0B4D284603F087
:100D5000C8FD01220949204603F0E1FD502208495F
:100D6000284603F0DCFD03F0C9FD044900200870AB
:100D700070BD000000F8010800FC010878000020A8
:100D80001001002010B590F821100022022905D092
:100D90000421816380F82020012010BD01680B68C8
:100DA00023F00E030B6001680B6823F001030B6056
:100DB00090F84030C46B012101FA03F3636080F8BE
:100DC000211080F82020104610BD000010B590F8CA
:100DD00021100024022903D00421816301243DE075
:100DE00001680A6822F00E020A6001680A6822F0AF
:100DF00001020A601A4A0168914201D1012121E0F1
:100E0000174A1432914201D110211BE0144A2832B2
:100E1000914201D1891515E0114A3C32914201D12C
:100E200089140FE00E4A5032914202D14FF48031C2
:100E300008E00B4A6432914202D14FF4801101E084
:100E40004FF08071064A083A5160012180F8211064
:100E5000002180F82010416B01B18847204610BD69
:100E60000800024070B5044600F0D8F90546601C41
:100E700002D004480078044400F0D0F9401BA0429E
:100E8000FAD370BDB80000202DE9F047054626488A
:100E90000F460126017E01290FD0012181460176EE
:100EA0002868DFF888804CF25034022808D0A24627
:100EB0002046FFF7B5FEA8B131E00220BDE8F0877B
:100EC0002046FFF7ADFE08BB0120FFF749FE204694
:100ED000FFF7A6FED8F81010064621F00401C8F866
:100EE00010101CE04FF0FF303860AC6811E0204675
:100EF000FFF748FE5046FFF793FED8F810100600A3
:100F000021F00201C8F8101001D03C6007E004F5A0
:100F10008064D5E9020100EB8120A042E7D80021DE
:100F200089F818103046C9E7280400200020024044
:100F30000348016941F08001016100207047000011
:100F4000002002402DE9F05F07461C488846002437
:100F5000017E15461E46012909D0012181460176F0
:100F60004CF2503A5046FFF75BFE18B122E00220E7
:100F7000BDE8F09F012F02D0022F00D00427D346F6
:100F8000DFF83CA0220128463146FFF7CBF881B2BA
:100F900008EB4400FFF708FE5846FFF741FEDAF879
:100FA000102022F00102CAF8102018B9641CE4B223
:100FB000BC42E7D3002289F81820D9E72804002092
:100FC00000200240064900200A69120607D5054A9A
:100FD0004A60054A4A600969090600D50120704740
:100FE0000020024023016745AB89EFCDB0F5005FDB
:100FF00002D10248FFF78BBD70470000F4030020C8
:10100000044910B50A68024202D00860FFF7EEFFFB
:1010100010BD0000140401402DE9F84FDFF8B8912D
:10102000002409F1040A0AF1040B23460F270BF1EF
:10103000040EC9E00125A5402A40AA427DD1674E91
:10104000D1F804C0ACEB0608B44532D014DCBCF1D6
:10105000030F3AD009DCBCF1000F2AD0BCF1010F1C
:101060001CD0BCF1020F31D11DE0BCF1110F17D023
:10107000BCF1120F2AD119E0B8F5881F19D006DC8F
:10108000B8F5803F15D0B8F5801F1FD111E0B8F535
:10109000001F0ED0B8F5041F18D10AE0CB6815E088
:1010A000CB681B1D12E0CB6808330FE0CB680C3314
:1010B0000CE08B682BB1012B4FF0080303D0456186
:1010C00004E0042302E0056100E00023FF2A01D8C8
:1010D000064601E000F104064FEA840501D9A5F1B6
:1010E0002005D6F8008007FA05FC28EA0C0803FA68
:1010F00005F548EA0508C6F800804D68ED0062D5A0
:10110000374DAE6946F00106AE61AD6924F00306C5
:1011100005F001050095334D06EB050CDCF8085091
:10112000A607360F07FA06F825EA0805DFF8B880A3
:10113000404503D14FF0000817E044E0DFF8AC80F1
:10114000404502D14FF001080FE0DFF8A480404590
:1011500002D14FF0020808E0DFF89880404502D144
:101160004FF0030801E04FF0040808FA06F848EAD7
:101170000508CCF808804D68D9F80060ED034D46AD
:1011800001D5164300E096432E604D68DAF8006002
:10119000AD03554601D5164300E096432E604D68D9
:1011A000DBF80060ED025D4601D5164300E0964392
:1011B0002E604D68DEF80060AD02754601D516431D
:1011C00000E096432E60641C0D682A46E5407FF4DB
:1011D00031AFBDE8F88F000000040140000011109D
:1011E000001002400000014000080140000C0140D6
:1011F00000100140001401408068084000D0012028
:101200007047C26821EA02030A4043EA02410161D1
:1012100070470AB1016170470904FBE70148806823
:1012200070470000B800002070B5040025D094F885
:101230003D00002520B984F83C50204600F04EF9CE
:10124000242084F83D002068016821F0010101603C
:101250002068016841F4004101602068016821F4C0
:101260000041016000F098FA4D4A6168914201D84E
:101270004C4900E04C49884201D2012070BD4B49E5
:101280002368B0FBF1F15E6826F03F060E435E6016
:101290006368934206D94FF4967359434FF47A73B7
:1012A000B1FBF3F12368491C1E6A26F03F06314367
:1012B00019626168914210D84900401EB0FBF1F2FA
:1012C000521CC2F30B02042A01D2042022E0B0FB1C
:1012D000F1F0401CC0F30B001CE0A268F2B301EB7C
:1012E000C10303EB0116431EB3FBF6F35B1C43F48F
:1012F00080431B0549D092B301EBC10202EB0111FF
:10130000401EB0FBF1F0401CC0F30B0040F48040E5
:1013100040F400402168CA694CF6FF739A431043B9
:10132000C861D4E9071001432068026822F0C002B6
:1013300011430160D4E9030101432068826848F247
:10134000FF339A4311438160D4E9050108432168C2
:10135000CA6822F0FF021043C86001E00EE016E008
:101360002068016841F0010101602564202084F8B3
:101370003D00256384F83E50002070BD01EB41061E
:10138000431EB3FBF6F35B1CB3E70120C2E701EB9E
:101390004101401EB0FBF1F0401CC0F30B00B7E769
:1013A000A086010080841E0000093D0040420F001D
:1013B0002DE9F84F1F4690468A460446DDF82890EE
:1013C000FFF72CFF054694F83D0020287FD1192314
:1013D000012240492046009501F09AF9002876D173
:1013E00094F83C00012872D0012084F83C00206869
:1013F0000168C90703D1016841F00101016020685B
:10140000016821F400610160212084F83D00102072
:1014100084F83E0000262664C4F824806785608D29
:1014200020852D48E0622B464A465146204601F071
:10143000FBF890B9206841698069009036E02A463F
:101440004946204601F0E3F950B1206C042804D14C
:101450002068016841F4007101600120BDE8F88F47
:10146000606A216800780861606A401C6062618D72
:10147000491E6185218D491E89B2218522685369E3
:10148000DB435B070BD451B100781061606A401CEC
:101490006062608D401E6085208D401E20852A463A
:1014A0004946204601F00EF90028CED1208D0028B3
:1014B000C5D154F83D0B016841F400710160202052
:1014C00004F81E09E67766770020C7E7FFE70220E9
:1014D000C4E70000020010000000FFFF10B586B056
:1014E0000021009101910291039100681049884206
:1014F0001BD1104CA06940F00800A061A0696946AA
:1015000000F0080004904FF4406000901220019019
:10151000032003900848FFF77FFDE06940F4800056
:10152000E061E06900F48000049006B010BD0000A6
:101530000058004000100240000C01400248816841
:101540000278114481607047B8000020074810B548
:10155000016841F010010160032000F075F80020DF
:1015600000F006F800F024F8002010BD0020024032
:1015700070B50D4D04464FF47A712878B1FBF0F048
:101580000A490968B1FBF0F000F0ECFA48B9102CF8
:1015900007D200222146501E00F036F800206C6071
:1015A00070BD012070BD0000B8000020C400002004
:1015B0000C4808B5816941F001018161816901F040
:1015C00001010091C16941F08051C161C06900F021
:1015D000805000900448416821F0E06141F00071C2
:1015E000416008BD0010024000000140002809DBF6
:1015F00000F01F02012191404009800000F1E0202D
:10160000C0F8001170470000F0B40E4B1B680C4688
:10161000C3F30223C3F10705042D00D90425191DC6
:10162000072901D2002300E0DB1E012606FA05F19E
:10163000491E214099409E40761E16403143F0BC21
:1016400002F042B90CED00E0064900F0070208681C
:101650004FF6FF03184040EA0220034A1043086097
:10166000704700000CED00E00000FA052DE9F0479E
:101670000F46050061D0434E306800F00700B842C5
:1016800009D2306820F0070038433060306800F03D
:101690000700B84251D128683B4C810712D540075A
:1016A00003D5606840F4E06060602878000703D5E7
:1016B000606840F4605060606068A96820F0F000E5
:1016C000084360602878C00728D06868012810D0D7
:1016D0002168022810D0890700292EDA616821F0DC
:1016E000030101436160FFF799FD804641F28839AB
:1016F0000DE021688903EFE78901EDE7FFF78EFD33
:10170000A0EB0801494502D90320BDE8F0876068D5
:10171000696800F00C00B0EB810FEFD1306800F089
:101720000700B8420BD9306820F00700384330601A
:10173000306800F00700B84201D00120E5E72878C2
:10174000400705D56068E96820F4E0600843606000
:101750002878000706D56068296920F4605040EABF
:10176000C100606000F038F86168084AC1F30311F5
:10177000515CC8400649086006480068FFF7F8FE5B
:101780000020C2E70020024000100240C44E0008C2
:10179000C4000020BC0000200448054900684968D6
:1017A000044AC1F30221515CC8407047C4000020C4
:1017B00000100240D44E00080448054900684968FA
:1017C000044AC1F3C221515CC8407047C4000020E4
:1017D00000100240D44E000812A185B00FC98DE858
:1017E0000F0014A0144A006804905168134801F0D7
:1017F0000C03042B10D0082B0ED1C1F38343C90373
:101800001DF803000AD5516804AAC1F34041515C98
:101810000A4A5043B0FBF1F005B07047084948430D
:10182000FAE7000002030405060708090A0B0C0D7D
:101830000E0F1010010200000010024000127A008A
:1018400000093D002DE9F84F040070D02078C04D0C
:10185000C00749D06868C0F38100012807D06868D4
:10186000C0F38100022809D16868C00306D5286842
:10187000800339D560680028E7D035E06068B0F5AE
:10188000803F0BD010B1B0F5A02F11D0286820F404
:1018900080302860286820F4802002E0286840F426
:1018A00080302860606890B1FFF7B8FC06460AE017
:1018B000286840F480202860F0E700BFFFF7AEFC06
:1018C000801B642873D828688003F7D50CE0FFF7E5
:1018D000A5FC064605E000BFFFF7A0FC801B6428BE
:1018E000F0D828688003F7D420789A4E80074FF00C
:1018F00001094FF0000839D5686810F00C0F07D0C7
:101900006868C0F38100022809D16868C00306D462
:101910002868800714D52069012808D110E02069C3
:10192000B0B1C6F80090FFF779FC074605E00AE180
:10193000FFF774FCC01B0228C4D828688007F7D5BD
:101940002868616920F0F80040EAC10028600DE0D5
:10195000C6F80080FFF762FC074604E0FFF75EFC74
:10196000C01B022823D828688007F7D420780007F6
:101970002CD57948A169D9B1C0F80090FFF74EFC89
:10198000074604E0FFF74AFCC01B02280FD8686A2C
:101990008007F7D571484FF4FA510068B0FBF1F0B9
:1019A000009000BF0098411E0091FAD20EE080E046
:1019B000C0F80080FFF732FC074604E0FFF72EFC7A
:1019C000C01B022875D8686A8007F7D420784007C2
:1019D00060D5E8690027C00008D4E86940F080506D
:1019E000E861E869012700F0805000905C480168D8
:1019F000C90513D40168834641F480710160FFF783
:101A00000DFC824606E000BFFFF708FCA0EB0A00D1
:101A100064284ED8DBF80000C005F5D5E068012841
:101A20000AD008B1052813D0286A20F001002862E6
:101A3000286A20F0040002E0286A40F001002862D1
:101A4000E06841F2883B98B1FFF7E8FB82460BE083
:101A5000286A40F004002862EEE700BFFFF7DEFBD3
:101A6000A0EB0A0159455AD8286A8007F6D50CE040
:101A7000FFF7D4FB824605E0FFF7D0FBA0EB0A019D
:101A800059454CD8286A8007F6D41FB1E86920F080
:101A90008050E861E06988B36968C1F38101022977
:101AA00044D00228C6F8608004D0FFF7B7FB044694
:101AB00038E034E0FFF7B2FB074604E0FFF7AEFB87
:101AC000C01B02282BD828688001F7D4206AB0F503
:101AD000803F05D16868A16820F400300843686041
:101AE000D4E908010843696821F474110843686067
:101AF000C6F86090FFF792FB044606E025E000BFC1
:101B0000FFF78CFB001B022809D828688001F7D555
:101B10001BE000BFFFF782FB001B022802D9032055
:101B2000BDE8F88F28688001F4D40EE00128F7D0D2
:101B30006868226A00F48031914204D1616A00F43D
:101B40007010884201D00120EAE70020E8E7000099
:101B5000001002400000424280044242C4000020C3
:101B60000070004010B5401EB0F1807F01D301200D
:101B700010BD4FF0E02460610F21601701F0A4FE5A
:101B80000020A06107202061002010BD10B590F852
:101B90003C20012A22D0012280F83C20CA688C68AF
:101BA00022F4407222434C6822F4806222430C6883
:101BB00022F4006222430C6922F4805222434C69D1
:101BC00022F400522243C969002322F480420A43CE
:101BD00001684A6480F83C30002010BD022010BD2E
:101BE00070B590F83C20012A26D0012480F83C40B2
:101BF000022280F83D2003685A689D6822F0700632
:101C00000A6832435A600D4B02689A4208D0B2F11A
:101C1000804F05D00A4B9A4202D00A4B9A4204D117
:101C2000496825F080031943916080F83D40002108
:101C300080F83C10084670BD022070BD002C0140A9
:101C4000000400400008004010B5040003D094F8E0
:101C50003D0010B107E0012010BD002084F83C00D9
:101C6000204600F01FF8022084F83D00211D206866
:101C700001F05CFB012084F8460084F83E0084F803
:101C80003F0084F8400084F8410084F8420084F862
:101C9000430084F8440084F8450084F83D000020A7
:101CA00010BD000008B5174A01681748914207D1D6
:101CB000816941F400618161806900F4006014E091
:101CC000B1F1804F0AD0114A914210D1C16941F05F
:101CD0000201C161C06900F0020006E0C16941F083
:101CE0000101C161C06900F00100009008BD084A0F
:101CF0009142FBD1C16941F00401C161C06900F0AA
:101D00000400F2E7002C01400010024000040040F3
:101D10000008004090F83D10012901D001207047D3
:101D2000022180F83D1000680B49884208D0B0F1CC
:101D3000804F05D00949884202D00949884204D120
:101D4000816801F00701062903D0016841F0010113
:101D50000160002070470000002C0140000400409A
:101D60000008004001680A6A41F211131A4207D1C3
:101D70000A6A9B101A4203D10A6822F001020A6023
:101D8000012180F83D100020704770B5044690F89E
:101D90003C00012817D0012584F83C50022084F82B
:101DA0003D002068826822F0770222F47F42826040
:101DB0000868502830D00DDC20284DD005DC98B3C1
:101DC00010283BD148E0022070BD302844D0402884
:101DD00034D139E0602828D0702806D0B0F5805F73
:101DE0002CD0B0F5005F29D10AE0CB68D1E9012100
:101DF000206801F0DEFA2068816841F0770109E08F
:101E0000CB68D1E90121206801F0D3FA206881680C
:101E100041F48041816011E0CA684968206801F09E
:101E20007DFB5021206807E016E0CA6849682068F9
:101E300001F085FB6021206801F0C5FA84F83D506F
:101E4000002084F83C0070BDCA684968206801F031
:101E500065FB40212068EFE7226801461046EBE76A
:101E600030B585B000210091019102910391036882
:101E70002248234A02214FF4407483420DD19069D5
:101E800040F0040090619069CDE9004100F0040049
:101E9000CDE9031069461B482CE01B4D1B48AB42A3
:101EA00019D1936943F0080393619269039102F099
:101EB000080204923322CDE900216946FFF7ACF80D
:101EC0001348416821F4406141F0E06141F4006150
:101ED000416005B030BD0F4DAB42FAD1936943F07C
:101EE000080393619269CDE9004102F00802CDE94F
:101EF00003126946FFF790F8EBE70000002C014061
:101F0000001002400008014000040040000C0140A5
:101F1000000001400008004070B5044690F83C0005
:101F20000D4601280AD0012084F83C0042B1042A61
:101F300018D0082A2AD00C2A4DD139E0022070BDD1
:101F4000206801F049FA2068816941F00801816147
:101F50002068816921F004018161206881692A6912
:101F6000114311E0206801F05FFA2068816941F4B3
:101F7000006181612068816921F48061816120684C
:101F800081692A6941EA0221816124E0206801F027
:101F900077FA2068C16941F00801C1612068C16910
:101FA00021F00401C1612068C1692A69114311E06F
:101FB000206801F091FA2068C16941F40061C161B3
:101FC0002068C16921F48061C1612068C1692A6902
:101FD00041EA0221C161002084F83C0070BD10B5C7
:101FE000040003D094F83D0010B107E0012010BDBB
:101FF000002084F83C00204600F01EF8022084F8FF
:102000003D00211D206801F091F9012084F846006F
:1020100084F83E0084F83F0084F8400084F84100D2
:1020200084F8420084F8430084F8440084F84500B2
:1020300084F83D00002010BD7047000010B5044634
:10204000022249B104290ED0082913D094F8410086
:10205000012816D0012010BD94F83E000128F9D1C6
:1020600084F83E200FE094F83F000128F2D184F874
:102070003F2008E094F840000128EBD184F840208C
:1020800001E084F841200122206801F085F90F4920
:102090002068884203D1426C42F4004242642068C6
:1020A000884208D0B0F1804F05D00949884202D05B
:1020B0000849884204D1816801F00701062903D04C
:1020C000016841F001010160002010BD002C0140B9
:1020D000000400400008004070477047F8B50268EF
:1020E00004461068D168536910F00F0F4FF00005D7
:1020F00053D003F0010601F4907737435FD0C20755
:1021000005D0CA0503D5226C42F0010222644207C1
:1021100005D5DA0703D0226C42F00202226482075E
:1021200005D5DA0703D0226C42F0040222640207CC
:1021300007D501F02002324303D0226C42F008029E
:102140002264226C002A34D0800604D5880602D589
:10215000204601F026FA20684069216CC0F3801007
:10216000090700D430B3204601F003FA2068416922
:1021700049061BD5416921F040014161A06BA8B11E
:1021800058494163A06BFEF721FE002811D0A06BD7
:10219000416B01B0BDE8F040084783060FD58B06C0
:1021A0000DD52046BDE8F84001F0FBB92046FFF709
:1021B00094FFF8BD2046FFF790FF2564F8BD266B1D
:1021C0002023012E52D1C60650D5CE064ED510681A
:1021D00050680090506940062AD5A16B0868406895
:1021E0000004000CEAD0A68D8642E7D9E085886914
:1021F000202818D0D06820F48070D0602068416911
:1022000021F0010141612068416921F040014161F3
:1022100084F83E3025632068C16821F01001C16058
:10222000A06BFEF7AFFDA08DE18D401A81B219E0E1
:10223000A08DE18D401A81B2E08D0028BED000292A
:10224000BCD0D06820F49070D0602068426922F041
:102250000102426184F83E3025632068C26822F0A2
:102260001002C2602046FFF737FFF8BD05062BD5E8
:102270000D0629D594F83D002128F6D1A068B0F5C7
:10228000805F01D12069B0B1206A411C21622168C0
:1022900000784860E08C401E0004000CE084E4D12B
:1022A0002068C16821F08001C1602068C16841F0E8
:1022B0004001C160F8BD206A0088C0F3080050608A
:1022C000206A801C2062E5E74006F3D54806F1D578
:1022D000D168204621F04001D16084F83D3000F003
:1022E00014F9F8BD6335000870B5040004D094F803
:1022F0003D00002510B106E0012070BD84F83C507F
:10230000204600F023F8242084F83D002068C168AE
:1023100021F40051C160204601F09EF92068016956
:1023200021F4904101612068416921F02A01416155
:102330002068C16841F40051C1602564202084F800
:102340003D0084F83E00002070BD000030B585B02F
:102350000024009401940294039400681B4988426D
:1023600032D11B48816941F480418161816901F466
:1023700080410491816941F0080181618069154DB6
:1023800000F00800049040200090022001900320FB
:10239000039069462846FEF73FFE8020CDE9000401
:1023A000694628460294FEF737FE0B48416841F023
:1023B000E06141F004014160002202212520FFF785
:1023C00023F92520FFF712F905B030BD0038014090
:1023D00000100240000C01400000014090F83E3027
:1023E000202B0ED159B152B190F83C30012B08D0BE
:1023F000012380F83C300023036301F089B90120F8
:10240000704702207047000010B511490068096844
:1024100088421CD10F4C207901F02EFA21794129F4
:1024200012D0422910D06079032805D2094AC0B2DF
:102430000A321154401C607106490122BDE8104067
:10244000091D0348FFF7CABF00206071EEE710BD09
:1024500074030020980000202DE9F843044690F80A
:102460003D001F4616460D4620284CD1C5B1BEB1D1
:1024700094F83C00012846D0012084F83C004FF03D
:102480000008C4F84080212084F83D00FEF7C6FE15
:10249000A6848146E684A068B0F5805F03D004E09E
:1024A0000120BDE8F883206928B12E465FF00005C1
:1024B00084F83C800EE00026FAE78021204601F0F7
:1024C00042F9A0B9AEB116F8010B21684860E08C62
:1024D000401EE084E08C4B464FF00002009700283D
:1024E000EBD14FF04001204601F02DF930B103202F
:1024F000D7E735F8020BC0F30800E6E7202084F8A0
:102500003D000020CDE70220CBE7704710B5134C0B
:10251000844222D11248007803281ED111496069F3
:1025200088421ADAA4F13C0002F036FA0EA1A4F1B6
:102530003C0002F06DFA00220121A4F13C0002F0FF
:10254000CBFA6069FDF7D4FE0246A4F13C000B46CD
:10255000BDE8104007A102F05BBA10BDF4030020F3
:10256000980000200000A041202044495354414ECF
:1025700043450000252E33660000000010B50446D8
:10258000807C032810D120680068406AFDF7A3FE14
:10259000064A074BFDF72DFEFDF7BDFE60612046A4
:1025A000FFF7B4FF0020A07410BD00009CC420B051
:1025B0007268913F30B5DDE90345C0E9001203813F
:1025C000C460058200218174416130BD10B50446AC
:1025D000807C00280FD1218901226068FEF719FE56
:1025E0000C21204602F033F9218900226068FEF7B1
:1025F00010FE0120A07410BDFEE701684A69D243B5
:1026000052050FD46FF480624A61002140F8301FF8
:10261000202242738173026942F004020261017355
:102620000120704700207047F8B50446C06A1E4676
:102630000D461746082807D0012805D010F5803F21
:1026400002D0206B122804D12068016841F4807107
:102650000160134600224FF001112046009600F061
:1026600057F840B120680068C00502D54FF40070EB
:1026700020640320F8BD2069B0F5804F0ED00620FD
:10268000216800EAD51040F0F000086133463A4670
:102690000B49204600F070F878B902E005F0FE0022
:1026A00000E0E8B221680861054933463A46891FCF
:1026B000204600F061F80028DCD00120F8BD0000C1
:1026C0000800010070B516460D4604460DE0204690
:1026D000FFF793FF08B1012070BD681C05D0FEF71D
:1026E0009DFD801BA84207D835B120684069C043D2
:1026F0004007ECD4002070BD002044F8300F2021AA
:102700006173A073216941F0200121612073E2E728
:102710002DE9F0471E4690460D460446C1F3074793
:10272000DDF8209008E0701C06D0FEF777FDA0EBE6
:102730000900B0420FD876B12068012F18D0806907
:1027400025EA00000004000C14D000214145EAD025
:102750000020BDE8F087002044F8300F202161738D
:10276000A073216941F02001216120730120F0E76D
:102770004069E5E70121E9E72DE9F0479A469146EE
:102780000E46044600254FF02008C1F3074725E018
:1027900020684069C043400514D42068016841F4B2
:1027A0000071016021686FF480604861256384F8DE
:1027B0003D8084F83E50206C40F00400206484F892
:1027C0003C501FE0B9F1FF3F08D0FEF727FDA0EB1A
:1027D0000A0149450CD8B9F1000F09D02068012F32
:1027E00013D0806926EA00000004000C0BD0CFE76C
:1027F00044F8305F84F80D80A573206940F0200014
:10280000206125730120BDE8F0874069EAE770B5D3
:1028100016460D4604460DE02046FFF7EEFE08B1D1
:10282000012070BD681C05D0FEF7F8FC801BA84293
:1028300007D835B120684069C0430006ECD40020B9
:1028400070BD002044F8300F20216173A07321690E
:1028500041F0200121612073E2E770472DE9F14347
:10286000914C904D9DF80010237A95F801C01846C0
:102870005B1CDAB2431E03264FF00109A1F13007B9
:10288000DBB2BCF1040F0FD2DFE80CF00E02749D36
:10289000092F0BD8082807D22154207A401C207217
:1028A0008148603802F0D1F8BDE8F883412934D07E
:1028B000422939D00027432939D04429F4D1794815
:1028C000082279491830FDF756FC78B32772A878AA
:1028D000401EA8707448603802F05EF87248AA780A
:1028E00072A1603802F094F86F480022012160382C
:1028F00002F0F2F8A8780028D6D104206870FEF71C
:102900008DFC2881684885F80390603802F004F94E
:102910006548603802F0F0F8C6E76348227201218A
:10292000603802F0D9F8BFE71A46F6E710E05E48D3
:10293000603802F031F85C4860A1603802F068F855
:10294000594800220121603802F0C6F82772ABE72F
:1029500055486E70603802F01FF853485BA160382C
:1029600002F056F8504800220121603802F0B4F815
:102970005AA121E0092F0AD8082813D22154207A1D
:10298000401C20724848603802F05FF80AE0412994
:1029900002D0422915D005E0434822720121603857
:1029A00002F09AF8207A0828B6D13F480022114652
:1029B000603802F091F84DA13B48603802F028F8E9
:1029C00072E71A46E8E741291BD0422933D035483F
:1029D0004429007851D0313908299DD802289BD14B
:1029E000314808220121603802F076F82E489DF81F
:1029F0000010603802F029F86846FDF7EDFBA87179
:102A000052E7022028702848603801F0C5FF2648A8
:102A10003AA1603801F0FCFF234800220121603810
:102A200002F05AF8204839A1603801F0F1FF0A237A
:102A3000012239A115E01C4885F80090603801F0AA
:102A4000ABFF194835A1603801F0E2FF1648603845
:102A500002F062F81448603802F04EF80A230122AE
:102A600032A11148A438FFF7F7FC0E490E480122A5
:102A7000091DA438FFF7B2FC16E70228A0D10A48C6
:102A8000603801F089FF084829A1603801F0C0FFD3
:102A90000548603802F040F80348603802F02CF82E
:102AA0002E7001E79800002018040020256420748F
:102AB000696D65206C65667400000000456E746584
:102AC000722070617373776F726400005072657367
:102AD00073204120746F204175746F004220746F21
:102AE0002052656D6F74653A200000004C5F507293
:102AF00065737320423A207361766500496E707584
:102B000074206E756D626572206F66006369726312
:102B10006C65733A000000003200000052454D4FD2
:102B200054455F53544154450000000031000000FB
:102B30004155544F5F535441544500002DE9F04135
:102B4000002501261E4C442827D0214642284978DA
:102B500026D043281FD1032901D002291BD11948AF
:102B60000572603801F018FF1648002211466038DF
:102B700001F0B2FF134814A1603801F049FF114879
:102B800000220121603801F0A7FF0E48603801F0F3
:102B9000BBFF02206070BDE8F081E6706570FAE767
:102BA0000229F8D101F0B9FE0B4F384601F099FE29
:102BB00008220449384601F0B2FE01F09FFEECE71E
:102BC0009800002018040020456E746572206E6520
:102BD0007720706173733A0000EC010870470000C1
:102BE0002DE9F047DFF86C80002408F1100900257A
:102BF00046464F4636F8151057F825000122FEF7D5
:102C000008FB6D1CEDB2042DF4D336F8141057F800
:102C100024000022FEF7FDFA0E4E0025083606F1CC
:102C2000180700BF36F8151057F82500FEF7E4FA2C
:102C300050B16D1CEDB2042DF4D3641CE4B2042C2D
:102C4000D5D30020BDE8F087034800EB8400405D49
:102C5000F8E7000010000020B44E000870B5FFF740
:102C6000BFFF214C06460125E078864204D025703E
:102C7000FEF7D4FA6060E6702078002640B1FEF7D7
:102C8000CDFA6168401A0F2802D3E0786070267090
:102C90006078A178884217D038B1E560FEF7BEFAB7
:102CA000A0606078FFF7DAFD0CE0FEF7B7FAA168E4
:102CB000401AB0F57A7F02D8A078FFF7CEFDA07851
:102CC000FFF78CFF6078A070E06800280BD0FEF75B
:102CD000A5FAA168401A40F6B831884203D360785B
:102CE000FFF72CFFE66070BD000000202DE9F041E9
:102CF0004E4C00254FF00108607805282CD2DFE803
:102D000000F0032B2B2D6900E078002824D0E5701B
:102D100001F003FE454908221831454801F0F0FD55
:102D200001F0ECFD43480572603801F035FE414882
:102D300041A1603801F06CFE3E480022012160385C
:102D400001F0CAFE3B48603801F0EEFE39486038B9
:102D500001F0DAFE84F80180BDE8F08101F0A0FF07
:102D600000F02AFDFEF75AFA6169401A642806D37A
:102D700030482438FFF72AFCFEF750FA60612078CB
:102D8000F0B1012822D00328E6D12A4E243E06F1D4
:102D90001800716901F0E2FB06F11800716901F099
:102DA0004DFBA0790028D7D12570A6F13C0001F099
:102DB000F3FDA6F13C00BDE8F04123A101F028BEDF
:102DC000BDE8F04100210846FDF760BEBDE8F041D6
:102DD00001F0E8BCFEF722FA2189401A86B2FEF71C
:102DE0001DFA21894FF47A77401AB0FBF7F107FBFF
:102DF000110060B90F48603801F0CEFDB6FBF7F066
:102E0000C0F11E020B4814A1603801F001FEFEF76C
:102E100005FA2189401A47F2305188429CD36570E7
:102E20000320A07084F8038096E70000980000203B
:102E300000EC010818040020456E74657220706172
:102E40007373776F72643A004155544F204D4F446D
:102E50004520444F4E4500004C6F636B2025647342
:102E6000000000002DE9F04F85B000244248009496
:102E7000019402940394816941F010018161816998
:102E800001F010010491816941F0200181618169A3
:102E900001F020010491816941F00401816181699F
:102EA00001F004010491816941F0080181618069A8
:102EB000DFF8C89000F008004FF40056049000229C
:102EC00031464846FEF7A5F9DFF8B4A001220F21EC
:102ED0005046FEF79EF9DFF8ACB04FF450480022A0
:102EE00041465846FEF795F90227012503970096BB
:102EF000CDE9015469464846FEF78EF80F20CDE92A
:102F000000050320CDE9024069465046FEF784F8EB
:102F1000F0208DE8310069465046FEF77DF8CDF887
:102F200000800397CDE9015469465846FEF774F8CE
:102F300015480096CDE9010469465846FEF76CF83D
:102F40004FF41C40CDE90004694650460294FEF758
:102F500063F80820CDE90004694658460294FEF75C
:102F60005BF8002201212820FEF74EFB2820FEF707
:102F70003DFB05B0BDE8F08F00100240001001409D
:102F800000080140000C01400000311010B596B05F
:102F900000240F9410941194129413941C216846E9
:102FA0001494FDF7D6F8202107A8FDF7D2F822489F
:102FB000204901604721C0E9011440F2E731C0E92E
:102FC000031444618461FEF73FFE4FF480500F907C
:102FD0000FA91948FEF7D9FE1748FFF700F8139418
:102FE00013A915481494FEF7FBFD6020CDE90004F9
:102FF0000294039404940594002269460E480694B2
:10300000FEF78AFF042269460B48FEF785FF079406
:10301000089409944FF400500A94CDE90B4007A995
:1030200005480E94FEF7B2FD0348FEF719FF16B0EF
:1030300010BD0000002C01405402002010B586B0E5
:1030400000241148009401940294039404944FF0D6
:103050008041059401604721C0E901144FF6FF71DA
:10306000C0E903148461FEF7EFFD4FF48050009037
:1030700069460548FEF789FE049404A902480594B0
:10308000FEF7AEFD06B010BD9C02002010B58EB05C
:1030900000240794089409940A940B941C21684610
:1030A0000C94FDF756F81E481C4901604721C0E901
:1030B000011444F61F61C0E903148461FEF7C4FDE6
:1030C0004FF48050079007A91548FEF75EFE14489C
:1030D000FEF785FF0B940BA911480C94FEF780FDB9
:1030E0006020CDE900040294002269460C48049453
:1030F000FEF712FF042269460948FEF70DFF082279
:1031000069460748FEF708FF0C2269460448FEF7A7
:1031100003FF0348FEF7A4FE0EB010BD00040040FC
:10312000E402002010B58EB000240794089409949E
:103130000A940B941C2168460C94FDF70AF8194870
:10314000174901604721C0E9011444F61F61C0E935
:1031500003148461FEF778FD4FF48050079007A9AF
:103160001048FEF712FE0F48FEF739FF0B940BA92B
:103170000C480C94FEF734FD6020CDE90004029465
:103180000822694607480494FEF7C6FE0C226946E9
:103190000448FEF7C1FE0348FEF762FE0EB010BD04
:1031A000000800402C03002010B5401A029CE41ACD
:1031B0006043511AB0FBF1F0184410BDFEE7000067
:1031C0000A4B10B5084A1978047A02F8214002EB3C
:1031D0008102047D547090F82040947090F82C0087
:1031E000D070491C197010BD10010020780000201B
:1031F0007047000010B501F03DFB064908708A8950
:1032000002448A818A78821A4A70887000EB8000B2
:10321000000110BD4C0000200068C36A53436422C3
:10322000B3FBF2F292B239B1042907D0082907D0D2
:103230000C2900D102647047426370478263704773
:10324000C2637047704770470B46C0E900320021E7
:10325000017211461846FEF7F1BE007A704738B584
:10326000017204460D4640F69210009040F212237F
:10327000B42200212846FFF797FF616849B104296D
:103280000BD008290DD00C2902D1216809680864E7
:1032900038BD21680968486338BD216809688863BA
:1032A00038BD21680968C86338BD10B504460521DA
:1032B000FFF7D5FF322104F10C00FFF7D0FF962174
:1032C00004F11800FFF7CBFF04F12400BDE8104023
:1032D0006D21FFF7C4BFFEF731B930B58FB028219B
:1032E0006846FCF736FF14210AA8FCF732FF0121DB
:1032F0000804CDE900100024029402250491CDE9D0
:1033000007504FF4E01009906846FEF79BFA0F2033
:10331000CDE90A056802CDE90C4002210AA80E9405
:10332000FEF7A4F90FB030BD70470000F0B5026899
:10333000164B174C174D4FF08047984205D0B842B6
:1033400003D0A04201D0A84203D122F070064A68FF
:103350003243984205D0B84203D0A04201D0A842DF
:1033600003D122F44074CA6822434C6922F08002DF
:10337000224302608A68C2620A688262984201D16E
:103380000969016301214161F0BD0000002C014089
:10339000000400400008004010B501F01F030121A7
:1033A000046A99408C430462016A9A4011430162A5
:1033B00010BD10B5846842EA032224F47F440A4316
:1033C0002243826010BD826822F070020A4342F0FC
:1033D000070181607047000030B5026A22F00102E7
:1033E0000262026A4368846924F073050C682C4306
:1033F00022F002058A682A430A4DA8420BD122F026
:103400000805CA6823F440732A434D6922F0040278
:103410001D438B692B4343608461496841630262A9
:1034200030BD0000002C014030B5026A22F01002CD
:103430000262026A436884690D6824F4E64444EA3F
:1034400005248D6822F0200242EA05120B4DA842A5
:103450000ED1CD6822F0800242EA05124D6923F4B4
:10346000406343EA85038D6922F0400243EA850305
:103470004360846149688163026230BD002C014071
:1034800030B5026A22F480720262036A4268C4693B
:1034900023F4007324F073050C682C438D6843EA11
:1034A00005230C4DA8420ED1CD6823F4006343EAF6
:1034B00005234D6922F4405242EA05128D6923F436
:1034C000806342EA05124260C4614968C1630362D5
:1034D00030BD0000002C014030B5026A22F4805259
:1034E0000262046A4268C3690D6823F4E64343EA52
:1034F00005238D6824F4005444EA0534064DA8429F
:1035000004D14D6922F4804242EA85124260C361CF
:1035100049680164046230BD002C014010B5036AA3
:10352000046A24F001040462846924F0F00444EA8B
:10353000021423F00A020A438461026210BD10B52E
:10354000036A23F0100303628369046A23F470435F
:1035500043EA023224F0A00343EA011182610162CE
:1035600010BD10B5406A0021C185C184FEF7B5FDCC
:1035700010BD0168CA6822F49072CA6001684A6985
:1035800022F001024A61016B012904D10168CA6875
:1035900022F01002CA60202180F83E100021016351
:1035A000704708B590F83E10222901D0022008BDCE
:1035B00082684FF480539A4201D1016921B1816A36
:1035C0009A421BD04AB10AE00268816A5268C2F38B
:1035D00008020A80816A891C08E0026972B10268E7
:1035E000526802F07F020A70816A491C8162C18DB3
:1035F000491E0904090CC18503D019E0026852680C
:10360000F1E70168CA6822F02002CA600168CA684E
:1036100022F48072CA6001684A6922F001024A619C
:10362000202180F83E10016B012903D0FEF7ECFE4B
:10363000002008BD002101630168CA6822F0100261
:10364000CA6001680A68D20602D50A684968009112
:10365000818DFEF741FDEBE770B504460068016916
:10366000E26821F44051114301612169A0680843D7
:10367000616908432168CA6841F20C639A430243B6
:10368000CA6020684169A26921F440711143416117
:103690001E492068884202D1FEF78EF801E0FEF74D
:1036A0007BF800EBC00101EB001260686421800030
:1036B000B2FBF0F3B3FBF1F36FF018067343B2FB08
:1036C000F0F5B2FBF0F605EB8305322303EB0515AD
:1036D000B5FBF1F5B6FBF1F605F0F00505EB0615C7
:1036E000B2FBF0F6B2FBF0F0B0FBF1F06FF01802B5
:1036F000504306EB800003EB0010B0FBF1F02168B3
:1037000000F00F002844886070BD000000380140C0
:1037100081628285C28500210164222280F83E20D8
:1037200080F83C100168CA6842F48072CA6001687F
:103730004A6942F001024A610068C16841F0200113
:10374000C160002070472DE9F041984617460E46AB
:103750000446069D1DE0681C1BD02DB1FDF75EFDE3
:10376000A0EB0800A84214D92068C16821F4D071E8
:10377000C1602068416921F001014161202084F885
:103780003D0084F83E00002084F83C000320BDE8A2
:10379000F0812068006836EA000004D00020B842BA
:1037A000D9D00020F3E70120F9E700000148FEF737
:1037B00095BC0000740300201CB52C4C60780028D8
:1037C00053D02BA12B4844E0017858290AD059291D
:1037D00011D0492918D04B291FD0412926D0422980
:1037E0002DD034E041783A2931D1801CFCF7F4FC2B
:1037F0008DF800002BE041783A2928D1801CFCF795
:10380000EBFC8DF8010022E041783A291FD1801CA1
:10381000FCF7E2FC8DF8020019E041783A2916D154
:10382000801CFCF7D9FC8DF8030010E041783A29A0
:103830000DD1801CFCF7D0FC8DF8040007E0417826
:103840003A2904D1801CFCF7C7FC8DF8050008A1BB
:103850000020FCF79FFC0028B6D1684601F082FAF0
:10386000684600F08BFD002060701CBD4000002009
:103870002C000000D0000020084A074B0A281178CD
:1038800003D05854491C11707047002058541070D0
:103890000120507070470000D00000204000002040
:1038A000FEE7000037B514460846064B6A46214637
:1038B00000F0F0F804466946002000F082FC204643
:1038C0003EBD0000C34100080907090E002804DBC3
:1038D00000F1E02080F80014704700F00F0000F1C4
:1038E000E02080F8141D704700487047CC0000208D
:1038F00002E008C8121F08C1002AFAD170477047B9
:10390000002001E001C1121F002AFBD17047000016
:103910002DE9FF5F82B00021DDE90430020DDDF802
:1039200040B0034318D044F61050A2F2FF32424395
:103930001514119801281FD0A5EB0B00401C5FEA5D
:10394000000A4FF000064E4FDFF83891B04650465F
:1039500015D5CAF1000413E0119801244AA30128E7
:1039600001D16FEA0B010298119AC0E90031C0E958
:10397000024206B0BDE8F09FCBF10000DFE704464D
:103980000021404A491842EB0450CDE9001012E0F2
:10399000E00707D032463B4640464946FCF729FC43
:1039A0008046894632463B4610461946FCF721FCC4
:1039B00006460F466410002CEAD1DDE90401DDE97A
:1039C0000023BAF1000F06DAFCF713FC42464B461F
:1039D000FCF70FFC05E0FCF789FE42464B46FCF77E
:1039E00085FE04460E460022284BFCF707FF03D84D
:1039F0004FF0FF30014607E00022254B20463146BC
:103A0000FCF7CDFDFCF7E1FE102409E0002C0ADBF9
:103A10000A220023FCF7C6FC039B30321A55641EB1
:103A200050EA0102F2D1641C039AC4F11103144458
:103A3000119A012A03D0012208430DD10AE008435C
:103A400004D000204FF0110B119072E7A3EB0B058F
:103A50006D1E0DE05B4504DD4FF0000205F1010530
:103A600004E003DA4FF00002A5F10105002AECD0D2
:103A700002981199C0E90231C0E9004579E70000D8
:103A8000000014400000F03F300000000000F04350
:103A90000000E03F2DE9FF4F95B09B468946064662
:103AA00000250FE2252877D100242746F84A012176
:103AB000059400E0044316F8013F203B01FA03F0AF
:103AC0001042F7D130782A2811D06FF02F033078C8
:103AD000A0F13002092A16D8059A44F0020402EB3C
:103AE000820203EB42021044761C0590EFE759F87E
:103AF000042B0592002A03DA504244F40054059046
:103B000044F00204761C30782E2816D116F8010FE6
:103B100044F004042A280DD06FF02F023078A0F171
:103B20003003092B09D807EB870302EB4303C718BF
:103B3000761CF3E759F8047B761C30786C280FD09C
:103B400006DC4C2817D068280DD06A2814D104E070
:103B5000742810D07A280FD10DE044F400140AE044
:103B600044F4801401E044F440147278824202D19B
:103B700004F58014761C761C307866280BD013DC94
:103B8000582877D009DC002875D04528F6D046287B
:103B9000F4D047281AD19DE118E0632835D0642875
:103BA00079D0652812D195E1702873D008DC672898
:103BB000F1D069286FD06E280DD06F2806D1B5E0FE
:103BC00073282CD0752875D0782874D05A46179948
:103BD00090476D1C75E1C4F30250022809D00328F8
:103BE0000DD0D9F8001004280DD00D6009F104099A
:103BF00067E1D9F80010EA17C1E90052F6E7D9F8F1
:103C000000100D80F2E70D70F0E719F8041B8DF835
:103C1000001000208DF80100EA46012003E059F869
:103C200004AB4FF0FF3061074FF0000102D40DE00C
:103C300008F101018846B9420FDA8045F8DB1AF82D
:103C400008100029F4D108E008F1010188468142FA
:103C5000FADB1AF808100029F6D105985B46A0EBAC
:103C6000080721463846179A00F094FA284400EBDA
:103C7000080507E04DE029E10DE01AF8010B5A466E
:103C800017999047B8F10108F7D25B4621463846AC
:103C9000179A13E142E00A220092C4F302524FF055
:103CA000000A022A08D059F804CB032A4FEAEC7123
:103CB0000AD00DE029E02AE009F1070121F007020E
:103CC000F2E802C1914609E00FFA8CFC4FEAEC7170
:103CD000042A03D14FFA8CFC4FEAEC71002907DA71
:103CE0000A460021DCF1000C61EB02012D2202E00A
:103CF000220504D52B228DF80420012203E0E207DF
:103D000001D02022F7E7904659E00A2102E0102274
:103D10000DE010214FF0000A00910BE010224FF04F
:103D2000000A44F004040827009203E008224FF040
:103D3000000A0092C4F30252022A05D059F804CBBB
:103D40000021032A08D009E009F1070121F0070248
:103D5000F2E802C1914605E01FFA8CFC042A01D169
:103D60000CF0FF0C4FF00008220728D5702806D071
:103D7000009B83F0100353EA0A0305D00EE04022B3
:103D80008DF80420012208E05CEA010206D030220E
:103D90008DF804208DF8050002229046009B83F0E8
:103DA000080353EA0A030AD15CEA010201D162075F
:103DB00005D530228DF804204FF001087F1E5828C9
:103DC00004D034A003900EA802900DE036A0F9E7CD
:103DD00053466046009AFCF7E5FA84460398825CF5
:103DE0000298401E029002705CEA0100F0D1029835
:103DF00006A9081A00F1200A600702D524F48034CD
:103E000000E00127574502DDA7EB0A0000E0002093
:103E100000EB0A01009005984144401A0590E00328
:103E200006D45B462146179A059800F0B3F905447D
:103E3000002706E001A85A46C05D179990476D1CFF
:103E40007F1C4745F6DBE0030CD55B462146179AFD
:103E5000059800F09FF9054404E030205A46179970
:103E600090476D1C0099481E00900029F5DC08E081
:103E7000029802995A460078491C02911799904776
:103E80006D1CBAF10001AAF1010AF1DC65E1000044
:103E90000928010030313233343536373839616220
:103EA00063646566000000003031323334353637E4
:103EB00038394142434445460000000000F058F9BB
:103EC0000544761C307800287FF4ECAD19B0284604
:103ED000BDE8F08F620700D4062709F1070222F03F
:103EE000070CFCE80223E14603F000485FEA080CF7
:103EF00002D00FF2702C0DE05FEA045C02D50FF2E5
:103F0000682C07E05FEAC47C02D00FF2602C01E06D
:103F1000AFF2700C4FF0FF3823F00043CDF850C0E3
:103F200065280CD006DC452809D046281DD0472836
:103F30003DD13DE0662818D067287ED138E00021C9
:103F4000112F01DB112000E0781CCDE9000106A94A
:103F50000EA8FFF7DDFCDDE90F010E9A03910021A9
:103F6000009207F1010A04914DE04FF000400097E4
:103F7000CDE9011006A90EA8FFF7CAFCDDE90F0282
:103F800003920E9B11990022DDF80CA0009304927D
:103F900011B9791C00EB010AB7EB0A0004D4C0F197
:103FA000FF3007F1010A0490AAEB0700019044E0FA
:103FB000012F00DA01270021112F01DD112000E07F
:103FC0003846CDE9000106A90EA8FFF7A1FCDDE9FE
:103FD0000F010E9A0391002104910092BA46210725
:103FE0000CD40399514500DA8A46BAF1010F05DD78
:103FF000009AAAF10101515C302908D0B84202DAD6
:1040000010F1040F06DA0121CDE9011015E0AAF143
:104010000101E9E7002805DC049901440491AAEBB9
:10402000000102E0411C514500DD8A460499401A16
:10403000401C01904FF000400290200704D40198EA
:10404000504501DBCDF8048000208DF84F00029828
:104050000DF14F07B0F1004F25D02B200E900298A4
:104060004FF0020800280CDA404202902D200E90FA
:1040700007E00A210298FCF77FF93031029007F837
:10408000011DB8F10001A8F10108F2DC0298002836
:10409000EFD1791E0E980870307800F0200040F0C3
:1040A000450007F8020D12A8C01B00F1070814987C
:1040B000007800B1012000EB0A01019801EBE071EA
:1040C00005984144401A401E0590E00306D45B4623
:1040D0002146179A059800F05DF805441498007879
:1040E00018B15A46179990476D1CE00324D55B46DA
:1040F0002146179A059800F04DF805441CE00498F5
:10410000002807DBDDE90301884203DD0098405CFD
:10411000179901E0179930205A469047049805F105
:104120000105401C04900198401E019004D12E20EE
:104130005A46179990476D1CBAF10001AAF1010A7D
:10414000DDDC05E017F8010B5A46179990476D1C06
:10415000B8F10001A8F10108F4DC5B462146179A8A
:104160000598ABE62D0000002B00000020000000A9
:104170002DE9F041044600251E461746880404D464
:1041800005E039462020B0476D1C641EF9D528464D
:10419000BDE8F0812DE9F041044600251E46904619
:1041A000C80301D5302700E02027880404D505E0A6
:1041B00041463846B0476D1C641EF9D52846BDE817
:1041C000F0810A68531C0B60107070472DE9F843AA
:1041D000FDF724F8304FB968401A0F2859D3FDF77E
:1041E0001DF8B8602D4BBA782D494FF0FF3013F809
:1041F00022400D7AAC4202D14FF0000404E002D913
:104200004FF0010400E0044603EB82020D7D537879
:10421000AB4202D14FF0000604E002D94FF0010694
:1042200000E00646937891F82050AB4202D14FF05F
:10423000000504E002D94FF0010500E00546D27800
:1042400091F82C10B8468A4202D14FF0000704E0E2
:1042500002D94FF0010700E007462B4632462146BF
:104260000F480097FCF777FB34432C433C4304D1C1
:1042700098F80210491C88F8021098F8021098F873
:104280000320914205D1002188F802100120BDE8E9
:10429000F8830020FBE70000780000206001002088
:1042A000C40300202DE9F843FCF7B8FF304FB9688C
:1042B000401A0F2859D3FCF7B1FFB8602D4BBA78DC
:1042C0002D494FF0FF3013F822400D7AAC4202D155
:1042D0004FF0000404E002D94FF0010400E004466E
:1042E00003EB82020D7D5378AB4202D14FF0000602
:1042F00004E002D94FF0010600E00646937891F8F9
:104300002050AB4202D14FF0000504E002D94FF03B
:10431000010500E00546D27891F82C10B8468A4293
:1043200002D14FF0000704E002D94FF0010700E08E
:1043300007462B46324621460F480097FCF70BFBF9
:1043400034432C433C4304D198F80210491C88F8AC
:10435000021098F8021098F80420914205D100212B
:1043600088F802100120BDE8F8830020FBE7000078
:1043700078000020B0010020C4030020F8B5264DCD
:104380000446E878052846D120790026022814D171
:104390002671012028722148FEF787FF0A23012297
:1043A0001FA12048FEF758F8002201211E4800F006
:1043B00093FB1EA11C4800F02BFB287A012811D189
:1043C00094F90200009094F9033094F9012094F9D3
:1043D00000101248FCF7BFFA6079022802D10F489A
:1043E000FEF7EEFE6079052815D166710A230122D9
:1043F00011A10C48FEF730F8687A10B1012805D0F9
:1044000008E0FCF777FCFCF735FC03E0FCF796FCD2
:10441000FCF750FC2E72F8BD4C000020C4030020B5
:104420003100000074030020B8030020494E5055AD
:104430005420434D440000003200000070B5454C4C
:1044400002466FF01D00E378072B3AD2DFE803F055
:10445000041215171D567D00FEF7CCFE0A2190FBB5
:10446000F1F040B200F11E014AB2C0F11E0041B2AB
:10447000104606E001461E2003E01E2101E0002157
:104480000846BDE87040FCF701BBA07A032501286F
:1044900018D003282FD0052813D100215FF01E006B
:1044A000FCF7F4FAFCF7BAFE6169401A192808D340
:1044B000FCF7B4FE6061608A401C80B260826428B0
:1044C00013D270BD1E210120FCF792FAFCF7A6FE64
:1044D0006169401A1928F4D3FCF7A0FE6061608A74
:1044E000401C80B260823228EBD300210846FCF7E2
:1044F0007FFAE57070BD1E210020D1E7002108463B
:10450000FCF7C4FA207A0028F4D1607A0125B0B112
:104510000128EFD1FFF7C6FE0028EBD00E4908783E
:10452000401E10F0FF0008702571E3D01E210846E0
:10453000FCF7ACFABDE87040FA20FCF793BCFFF73B
:1045400045FE0028D6D02571F0E7BDE87040104642
:1045500000F070B84C0000209E00002070B50D46A1
:10456000064600F087F9044600F074FB3046FEF77B
:1045700074FE264A5A2800D195622549906A8842DD
:1045800004DCD078002812D106200FE0D17806296B
:104590000DD0A01D0CD001230020062C0CD0052C22
:1045A0000DD0651D0DD0241D082C0CD8D07070BD09
:1045B0000329FCD00420F9E70521D17005E0D37070
:1045C00070BD0220F2E70529FAD1117A0029F7D14E
:1045D00011790129F4D11071517A89B10129EFD1F2
:1045E00050720C4800F0D8F90BA10A4800F010FAFC
:1045F000084800F091FABDE87040064800F07CBA27
:104600005372044800F0C8F906A1EEE74C00002000
:1046100000002041B80300204C4F4144204954453C
:104620004D530000554E4C4F4144204954454D5385
:104630000000000070B5194C06460D46A07918B16F
:10464000BDE8704000F02CB800210846FCF71EFAC7
:10465000FCF7E4FD216A401A0F281ED3FCF7DEFDAB
:104660002062617901200029E1890AD0491E09B23E
:10467000E18100290ADA0021A5616171A0715A2146
:1046800004E0491C09B2E181B42904DC3046BDE8EC
:104690007040FEF7E4BDE561607170BD4C00002024
:1046A0002DE9F041FCF7BAFD3D4C04260025616A76
:1046B0006FF03107401A40F226281E2825D3FCF758
:1046C000ADFD6062E07938B1012102280AD00128ED
:1046D0000CD0032811D018E0208A122810D9258286
:1046E000022008E0208A12280AD90CE0208A122829
:1046F00006D925820320E07107E0208A1E2802D80F
:10470000401C208201E02582E171D4E90601FBF71B
:1047100029FE1DD2E079052840D2DFE800F003062B
:1047200028280F003221384604E03946322001E0C3
:104730001E210846BDE8F041FCF7A8B91E21084635
:10474000FCF7A4F9FA20FCF78DFB322138461DE076
:10475000D4E90601FBF7FCFD20D2E07905281DD243
:10476000DFE800F0040305050B00DBE7DDE700F000
:1047700081F8801DDCD0E671DAE71E210846FCF7DF
:1047800085F9FA20FCF76EFB39463220FCF77EF9FA
:104790004046FCF767FBE570E571A571BDE8F08167
:1047A0004C000020AFF3008038B5124C2078B8B12F
:1047B000012818D0022812D1607800280FD0201DBF
:1047C00090F90310009190F9023090F901200078DF
:1047D000404241B20848FCF7BEF80020607038BD86
:1047E0000021084601E0E178A078BDE83840FCF7F8
:1047F000FFB8000042000020C403002070B5154639
:10480000044689B1012918D002291FD1A1880122AB
:104810002068FCF7FEFCC5F16400C2B2A189A06863
:10482000BDE87040FEF7F8BCA18800222068FCF7C4
:10483000F0FCA1890022A068F2E7A188002220688C
:10484000FCF7E7FCA1892A46A068E9E770BD70B5CE
:1048500004460D4621680020096848622068FDF77B
:1048600059FA206801684A6AAA42FCD3BDE8704040
:10487000FDF778BA70B5002400F066F8621F911059
:104880004B1020282BD2DFE800F0291321132A2A0D
:104890001F181B2A2A2A1D2A2A15272A2A1D2A2AD6
:1048A0002A1B271F2A2A232125106FF0050416E052
:1048B000144614E06FF0030411E06FF002040EE000
:1048C0000C460CE01C460AE0012408E0022406E045
:1048D000032404E0042402E0052400E0062420462A
:1048E00070BD00B585B004A902900120039000209E
:1048F00000906846FCF7C8FA05B000BDFCF718BB8D
:1049000030B5002306E0C458CC54240ACD189B1CB3
:104910006C709BB29342F6D330BDFCF753BB2DE9CC
:10492000F04115460E460746002408E030193919B3
:1049300002880120D30FFCF705FBA41CA4B2AC42F3
:10494000F4D3BDE8F081000070B5114D00244FF4A0
:1049500080612846FCF750FC44EA0014E91428461C
:10496000FCF74AFC44EAC004A9142846FCF744FCBE
:1049700044EA80044FF400412846FCF73DFC44EA39
:104980004000C4B208210348FCF736FC204370BD48
:1049900000080140000C014010B5012100F057F85B
:1049A000BDE810400320FCF75DBA10B50446416035
:1049B00050002070207A332140F0040020722046FD
:1049C00000F045F83221204600F041F80520FCF7C0
:1049D00049FA0121204600F03AF80520FCF742FA96
:1049E0000C21204600F033F80520FCF73BFA0221A9
:1049F000204600F02CF80520FCF734FA80212046F0
:104A000000F025F8204600F077F80820607210BD0D
:104A10000FB470B586B005460CAA68460B99FEF730
:104A200041FF00246E4605E0315D284600F02FF876
:104A3000641CE4B26846FBF797FBA04201D9102C36
:104A4000F2D306B070BC5DF814FB00F020B81CB5C2
:104A500001F0F002437A42F004041C438DF8044054
:104A600013438DF805300901427A41F004031A43DB
:104A70008DF80620427A04230A438DF8072064212A
:104A800000910178406801AAFCF792FC1CBD1CB59E
:104A900001F0F002437A42F005041C4342F00102A7
:104AA0008DF8044013438DF805300901427A41F036
:104AB00005031A438DF80620427A41F001010A43AA
:104AC0008DF807206421009101784068042301AA31
:104AD000FCF76EFC1CBD000008B506A31B68009324
:104AE0001DF801101144C9B241F08001FFF7AFFF7A
:104AF00008BD000000401454017A21F00101017248
:104B000041F00801FFF7A3BF017A41F001010172F2
:104B100041F00801FFF79BBF017A21F00201017209
:104B200041F00801FFF793BF017A41F002010172E1
:104B300041F00801FFF78BBF0EB5FCF707FDFEF74C
:104B4000CCFBFEF78FF93C483A49002401603B4911
:104B5000C0E901144FF48045C0E903454461846114
:104B6000C4610462FCF760FB3648354901604FF4CC
:104B7000E131C0E901140C21C460C0E90441846141
:104B8000C461FDF7B1FBFEF701FAFEF757FAFEF735
:104B90007DFAFEF7C7FA2849272201F5DC70FFF7F6
:104BA00004FF294C6E102749CDE900464839A3146B
:104BB000224601F1C800FDF7FDFC68000095CDE933
:104BC00001401D482346042200215430FBF77CFF9E
:104BD0001C49903901F1E000FBF7EBFE19490C226A
:104BE000483901F1E000FEF72FFB16485A219830B2
:104BF000FEF735FB00F026F9FCF73CF8FCF75AF815
:104C00004FF4FA75114C124FFEF728F8FEF76EF8C4
:104C10000C488030FDF7B2FCFCF700FB2169401A1C
:104C2000A842F1D931463846FCF7EBFAFCF7F6FA20
:104C30002061E9E70058004000020020A086010042
:104C40000038014074030020000C0140980000204F
:104C50000010014030B50322012309490524001D3D
:104C6000092807D2DFE800F007070705050509094D
:104C700009008B7230BD8A7230BD8C7230BD00006D
:104C80004C00002030B40C4602990460828083609E
:104C9000818100228273C27330BC1846FDF7CEB901
:104CA0002DE9F041244C002601272078A4F10A05C3
:104CB00041281FD1A178204633293BD10680867038
:104CC0000A2301221DA11E48FDF7C6FB1C48AF7137
:104CD0004430FFF761FE1A481AA14430FFF798FEEE
:104CE00017484430FFF718FF15484430FFF704FF1A
:104CF00003202870207842281CD1A078332819D1AD
:104D00002680A6700A23012211A10D48FDF7A4FBFD
:104D10000B484430FFF740FE09480EA14430FFF72E
:104D200077FE07484430FFF7F7FE05484430FFF7A9
:104D3000E3FE2F70BDE8F081A200002032000000E9
:104D4000740300204155544F5F53544154450000B3
:104D50003100000052454D4F54455F535441544576
:104D60000000000070B53649022501230A780024AE
:104D7000012A02D0022A4CD057E090F90120002AE3
:104D800003D009DD86782EB122E0827862B98C707A
:104D9000CC704AE08B7026E005DA86784EBB8D70C9
:104DA00032E0CA7041E012D190F90220002A07DDFA
:104DB0004FF0040602EB82028E704FEA4202F0E7E7
:104DC00033DA4FF003068E704FF0F6061EE00FDD6B
:104DD00090F90260002E02DD4FF0060602E024DAB0
:104DE0004FF005068E7002EB82024FEA8202D8E78E
:104DF0001BDA90F90260002E02DD4FF0080602E097
:104E000013DA4FF007068E704FF0EC0602FB06F245
:104E1000C7E70B4A067802F104021670467856700E
:104E2000C67896708678D6704B700279012A01D1C7
:104E300004710B704279012A01D144710D7070BD6B
:104E40004200002070B5FFF768FD154C2046FFF7C3
:104E500048FD144D2846FFF744FD01221249204623
:104E6000FFF75DFD104914220B312846FFF757FD6F
:104E70000E4C2046FFF735FD0D4D2846FFF731FD5E
:104E8000012209492046FFF74AFD074914220B3148
:104E90002846FFF744FDBDE87040FFF72FBD000036
:104EA00000F8010800FC01087900002000F001086A
:104EB00000F4010831323341343536423738394352
:104EC0002A30234400000000000000000102030417
:104ED00006070809000000000102030400404040EA
:104EE00040404040404041414141414040404040BD
:104EF0004040404040404040404040404005020269
:104F00000202020202020202020202020220202027
:104F10002020202020202002020202020202909083
:104F20009090909010101010101010101010101081
:104F300010101010101010100202020202028888D5
:104F400088888888080808080808080808080808E1
:104F500008080808080808080202020240000000C9
:104F6000DD4E0008844F000800000020D000000043
:104F7000F038000854500008D000002078070000E6
:104F800000390008000000000000000000000000E0
:104F900000000000010002000400080010002000D2
:104FA0004000800000080140000801400008014066
:104FB00000080140000801400008014000080140CD
:104FC0000008014000000000000000000000000098
:104FD00000000000000000000000000000005A0077
:104FE00000000000000000000000000000000000C1
:104FF00000000000000000000000000000050000AC
:1050000000000000000000000532966D5A96966E72
:105010005A96965A5A786E6E5A2D826D0000030188
:105020000000000000000000000000000000000080
:10503000000000000000000000000000010000006F
:1050400010000000000000000024F4000000000038
:04505000000000005C
:04000005080000ED02
:00000001FF
